S00F000062696E2F6D61696E2E733139D8
S315080000000000022041100008111000081D10000809
S315080000101110000811100008111000080000000057
S315080000200000000000000000000000001110000899
S315080000301110000800000000111000081502000841
S3150800004011100008111000081110000811100008FE
S3150800005011100008111000081110000811100008EE
S3150800006011100008111000081110000811100008DE
S3150800007011100008111000081110000811100008CE
S3150800008011100008111000081110000811100008BE
S3150800009011100008111000081110000811100008AE
S315080000A0111000081110000811100008111000089E
S315080000B011100008111000082D0C00081110000876
S315080000C0111000081110000811100008111000087E
S315080000D0111000081110000811100008111000086E
S315080000E0111000081110000811100008111000085E
S315080000F0111000081110000811100008111000084E
S31508000100111000081110000811100008111000083D
S31508000110111000081110000811100008111000082D
S31508000120111000081110000811100008111000081D
S31508000130111000081110000811100008111000080D
S3150800014011100008111000081110000811100008FD
S3150800015011100008111000081110000811100008ED
S3150800016011100008111000081110000811100008DD
S3150800017011100008111000081110000811100008CD
S30D08000180111000081110000817
S3150800018872B6054B054A1B680C2101FB032300229E
S315080001985A6062B600BFFDE78400002024000020EC
S315080001A808B500F0A9FEFCE770B500221146154B04
S315080001B80C2000FB01F55E19746814F0020F1C4642
S315080001C80AD17668F60707D550435D5B185AADB26B
S315080001D880B2854238BF0A460C2048431D5AADB23C
S315080001E825B11D5AADB2013DADB21D5201310829DE
S315080001F8DDD10C235343E118498889B2E152024BF1
S315080002081A6070BD24000020840000202DE9F00F34
S31508000218EFF308820D4C0E4D2368013305D0236889
S315080002280C2101FB03539A6001E000232360FFF7C2
S31508000238BBFF23680C2202FB03556FF00603AA6866
S315080002489E4682F30888BDE8F00F704784000020B0
S315080002582400002072B6704762B6704700BF704720
S3150800026882B072B6034B1B68019362B6019802B056
S31508000278704700BF8400002008B500F02BFE00BFB9
S31508000288FDE7000022F00302403A2DE9F04301EBAE
S31508000298020C02F1340802F138093C3288448944D0
S315080002A807461144002272B6114E0C255543741997
S315080002B86068C00712D40F48C4F808C0C8F8000018
S315080002C84FF00450C9F80070072B98BF0823086038
S315080002D80120638073536060104600E0082062B608
S315080002E80132082A01D00828DDD0BDE8F08300BF0E
S315080002F8240000208901000810B500230B490C22A8
S315080003085A438C18002060600133082083426080B5
S315080003188852F3D1064B074807494FF0FF321A604F
S31508000328BDE810408022FF23FFF7ACBF2400002059
S3150800033884000020A90100088800002007B5FFF7F7
S315080003488FFF009072B60D4B009A0C2101FB023202
S31508000358516841F00201516072B6009A0C2101FBFE
S3150800036802325268019262B6019A910700D500BF17
S31508000378019A9207F0D403B05DF804FB2400002024
S31508000388002372B6064A0C2101FB0322516821F0A4
S315080003980201516062B60133082BF2D1704700BFDB
S315080003A82400002008B5FFF7A7FF00F005F8BDE808
S315080003B8084000F0E7B8000010B5002209490023F4
S315080003C841F822300132082AF8D1074C18012118B9
S315080003D801330022042B4A602250CA608A60F4D18D
S315080003E810BD00BF080100202801002038B5064CBA
S315080003F80546204600F0F8F8284600F05DFC204639
S31508000408BDE8384000F00CB96801002010B504466C
S31508000418074800F0E9F8013C14F8010F10B1FFF796
S31508000428E5FFF9E70248BDE8104000F0F9B800BF53
S315080004387401002030B585B0031E4FF00002A8BF2E
S3150800044814468DF80F20BCBF5B4201240A220A21F4
S3150800045893FBF1F501FB153301A830331354511EEC
S315080004682B460DB10A46F2E72CB104AB0B442D22F4
S3150800047803F80C2C0A461044FFF7C8FF05B030BD30
S315080004881FB500238DF80F300A230A24B0FBF4F1B0
S3150800049804FB110001AA303098545C1E084609B1BD
S315080004A82346F2E7D018FFF7B1FF04B010BD1FB511
S315080004B800238DF80F300A2300F00F01092901AA35
S315080004C894BF303157310009D15403F1FF3101D0B7
S315080004D80B46F1E7D018FFF799FF05B05DF804FB5E
S315080004E80FB437B506AC264854F8045B00F07CF818
S315080004F801940024285D002839D0252803D0FFF761
S3150800050875FF0134F6E72B195878692816D008D8E4
S31508000518252828D0632828D1019B1A1D0192187806
S3150800052821E0752811D0782816D073281DD1019B8B
S315080005381A1D18680192FFF769FF16E0019B1A1D34
S3150800054818680192FFF776FF0FE0019B1A1D1868D5
S315080005580192FFF795FF08E0019B1A1D186801929A
S31508000568FFF7A5FF01E0FFF741FF0234C2E7044899
S3150800057800F056F803B0BDE8304004B0704700BF35
S315080005887001002010B50E4800F024F80D4800F058
S3150800059821F80D4800F01EF80C4800F01BF808244E
S315080005A82020FFF723FF013CFAD120240A20FFF771
S315080005B81DFF013CFAD10648BDE81040FFF790BF79
S315080005C8680100206C0100207401002070010020D9
S315080005D82013000810B50446FFF73CFE00232360E5
S315080005E8BDE81040FFF738BE13B50446FFF732FEDC
S315080005F823680193FFF730FE019B0BB1FFF79EFEB8
S31508000608019B002BF2D1FFF725FE23680193019B76
S31508000618002BEBD101232360FFF71EFE02B010BDA5
S3150800062808B5FFF7D7FFFFF7ABFEBDE80840FFF7A9
S3150800063815BE000008B500F08DFDFFF7B3FE0849A2
S315080006480848FFF74DFF00F069F9074907484FF4CE
S3150800065800720823FFF716FEFFF70EFE002008BDF6
S31508000668000000083113000878030020C50A0008AE
S3150800067808B54FF4165000F0E9FB6420BDE80840B9
S3150800068800F00ABB0023C25C0AB10133FBE718462F
S31508000698704710B5441E14F8010F10B100F0C0FBDE
S315080006A8F9E710BD30B585B0031E4FF00002A8BFA4
S315080006B814468DF80F20BCBF5B4201240A220A2182
S315080006C893FBF1F501FB153301A830331354511E7A
S315080006D82B460DB10A46F2E72CB104AB0B442D2282
S315080006E803F80C2C0A461044FFF7D3FF05B030BDB3
S315080006F81FB500238DF80F300A230A24B0FBF4F13E
S3150800070804FB110001AA303098545C1E084609B14A
S315080007182346F2E7D018FFF7BCFF04B010BD1FB593
S3150800072800238DF80F300A2300F00F01092901AAC2
S3150800073894BF303157310009D15403F1FF3101D044
S315080007480B46F1E7D018FFF7A4FF05B05DF804FBE0
S315080007580FB437B506AB002453F8045B0193285D3C
S31508000768002839D0252803D000F05AFB0134F6E7CB
S315080007782B195878692816D008D8252828D0632828
S3150800078828D1019B1A1D0192187821E0752811D0E5
S31508000798782816D073281DD1019B1A1D186801924E
S315080007A8FFF777FF16E0019B1A1D18680192FFF7F5
S315080007B879FF0FE0019B1A1D18680192FFF798FF49
S315080007C808E0019B1A1D18680192FFF7A8FF01E0C7
S315080007D800F026FB0234C2E703B0BDE8304004B097
S315080007E8704770B50E46054600F048FA00240644D8
S315080007F800F020FB421C06D02B5D83420CBF013457
S315080008080024285D20B100F039FA8642F0D201208A
S3150800081870BD000038B50B460546144607482946F4
S315080008281A46FFF795FF06482146FFF7DAFF18B17B
S315080008380448FFF78DFF012038BD00BF44130008A0
S31508000848601300086313000810B504460548FFF747
S315080008587FFF21460448FFF7C4FF003018BF012070
S3150800086810BD00BF63130008601300082DE9F041A6
S31508000878069C05462448884616461F46FFF768FF1D
S3150800088822482146FFF7ADFF88BBA844454504D052
S3150800089815F8010B00F0C4FAF8E71D482146FFF7DA
S315080008A8A0FF38BB1B482146FFF79BFF28BB1A4801
S315080008B82146FFF796FF054610BB00F0DFF904440A
S315080008C800F0B8FA411C0DD070550135BD4207D362
S315080008D800F0D4F9844234BF06200020BDE8F08130
S315080008E80A28F5D000F0CAF98442E9D2F0E70220CE
S315080008F8BDE8F0810320BDE8F0810420BDE8F08159
S315080009080520BDE8F08100BF7113000861140008CE
S315080009186013000881130008861300082DE9F041C2
S31508000928524B534C5348C4F88830534B8AB01B680B
S315080009380025C4F884302560FFF7D2FD8DF80E50DF
S315080009488DF80F504D4D02A9102628464FF001087C
S31508000958032702968DF80C808DF80D7000F03AFC86
S3150800096864206E8300F098F9FFF782FE2E834FF411
S315080009787A7000F091F94248FFF7EAFE41484FF4C9
S315080009887A71FFF72EFF264620B13F48FFF7A8FDE4
S31508000998404667E04FF4FA6000F07EF93B48FFF7F7
S315080009A8D7FE3848C821FFF71CFF20B13848FFF79B
S315080009B897FD022056E037483749384AFFF7C8FEF8
S315080009C8304846F2A811FFF70CFF28B134483249D7
S315080009D8FFF786FD384645E032482F49FFF780FD80
S315080009E8314B04AA03F110041746186859681546C6
S315080009F803C50833A3422A46F7D118681B79286025
S31508000A082B71D6F88800D6F884104FF49672FFF73B
S31508000A1801FF044660B93846FFF734FE4FF4FA7307
S31508000A28014600933846214A2023FFF71FFF04464C
S31508000A383220FFF709FF1E482146FFF751FD64B922
S31508000A481C48FFF74DFD194B185D0134FFF7CEFC1E
S31508000A58202CF8D11848FFF743FD4FF47A7000F0B8
S31508000A681BF9BDE70AB0BDE8F08100BF0400002005
S31508000A7878050020881300080000002000000240BE
S31508000A889B13000860130008A3130008B81300088E
S31508000A98C6130008DA130008EF130008FC13000849
S31508000AA8051400081F140008661400080406002028
S31508000AB83A140008521400086314000808B50B48CD
S31508000AC8FFF70EFD202000F079FB00F0D7F84FF469
S31508000AD87A71B0FBF1F10648FFF702FD202000F015
S31508000AE873FB642000F0D8F8ECE700BF7B14000815
S31508000AF8B61400081C4A038890429BB212D002F525
S31508000B08806290420ED0B0F1804F0BD0A2F58032A9
S31508000B18904207D002F58062904203D002F58062BF
S31508000B28904203D14A8823F0700313430F4A904230
S31508000B3808D002F58062904204D023F440730A89EB
S31508000B489BB2134303804B68C3620B880385064B25
S31508000B58984203D003F58063984201D18B7A0386BD
S31508000B6801238382704700BF00000140001000403F
S31508000B78038819B19BB243F0010303E023F001038C
S31508000B881B041B0C03807047C94389B2018270474E
S31508000B9830B5002085B01E4A4FF4806322F810301D
S31508000BA81C4A22F810301C4B002423F81040013048
S31508000BB804282546EFD1194B01211C6000F0B2FA2A
S31508000BC8ADF80640ADF80C408DF80E40144C53238A
S31508000BD8ADF804302046312301A90293FFF78AFFAE
S31508000BE820460121FFF7C4FFA3899BB243F00103FE
S31508000BF8A3811E238DF80030684601238DF801501D
S31508000C088DF802308DF8033000F038FB05B030BD9A
S31508000C18380600202C06002024060020340600206A
S31508000C28000800400023104A32F8131089B229B187
S31508000C3832F8131089B2013989B207E00B4931F83D
S31508000C48131089B222F81310094A012122F8131041
S31508000C580133042BE7D1074B07481A6801210132EB
S31508000C681A60FFF791BF00BF380600202C0600203F
S31508000C7824060020340600200008004082B072B618
S31508000C88044B1B68019362B601980A23B0FBF3F07C
S31508000C9802B070473406002013B50446FFF7EEFF86
S31508000CA820440190019CFFF7E9FF844202D900F02D
S31508000CB823F9F7E702B010BD034B1A88520601D488
S31508000CC800BFF9E7988070470010014030B510203A
S31508000CD887B0012100F032FA01201C4D014600F0C8
S31508000CE815FA4FF4C0630024009328460223694680
S31508000CF88DF804308DF805308DF806408DF80740D4
S31508000D0800F068FA28460921072200F0A4FA072203
S31508000D1828460A2100F09FFAADF80C40ADF80E40B7
S31508000D28ADF81040ADF81440094C4FF4E13302937E
S31508000D3820460C2302A9ADF8123000F00BF820461D
S31508000D48012100F061F807B030BD00BF000002407D
S31508000D5800100140038ACA889BB223F4405330B571
S31508000D6813430D46038283890989AA8823F4B05355
S31508000D780A43698923F00C030A431B0492B21B0C25
S31508000D8813438381838AAA899BB223F44073134346
S31508000D9885B083820446684600F074F9194B9C426C
S31508000DA803D003F580639C4201D1039B00E0029BB4
S31508000DB8A28912B2002A2A684FF01901B4BF520054
S31508000DC892005943B1FBF2F16423B1FBF3F2120125
S31508000DD8100903FB1011A08900B2002806DAC90019
S31508000DE83231B1FBF3F303F0070305E009013231A9
S31508000DF8B1FBF3F303F00F031A4392B2228105B04D
S31508000E0830BD00BF00100140838919B19BB243F475
S31508000E18005303E023F400531B041B0C838170471B
S31508000E28034B1A88520601D400BFF9E79880704721
S31508000E3800440040044B1A8890064ABF98884FF623
S31508000E48FF7080B200B27047004400402DE9F041B7
S31508000E58012186B080464FF4003000F063F91B4E36
S31508000E680120014600F052F9002402250C273046D5
S31508000E7869468DF8064000978DF804508DF8055098
S31508000E888DF8075000F0A6F930462946072200F0E3
S31508000E98E2F907223046032100F0DDF9ADF80C40E7
S31508000EA8ADF80E40ADF81040ADF81440084CCDF832
S31508000EB80880204602A9ADF81270FFF74BFF2046B6
S31508000EC80121FFF7A1FF06B0BDE8F0810000024046
S31508000ED800440040054B064A5A60064AF02182F843
S31508000EE8231000229A6007221A60704710E000E073
S31508000EF84090020000ED00E030BF704700F000B8EF
S31508000F083B4BD3F8882042F47002C3F88820D3F8FC
S31508000F18882042F47002C3F88820364B1A6842F0D3
S31508000F2801021A6000229A60196821F0847121F476
S31508000F388031196030495960196882B021F48021D6
S31508000F481960DA60009201921A6842F480321A60CF
S31508000F58284B1A6802F400320192009A013200926C
S31508000F68019A1AB9009AB2F5A06FF1D11B6813F461
S31508000F78003318BF01230193019B012B05D01C4B95
S31508000F884FF000629A6002B070471A4B1A6C42F02A
S31508000F9880521A64194A116841F4804111609A68A6
S31508000FA842F090029A609A6842F400429A609A68F7
S31508000FB842F4A0529A60124A5A601A6842F080723D
S31508000FC81A6019680B4A8901FBD50E4B40F2056170
S31508000FD81960936823F003039360936843F0020348
S31508000FE89360044B9B6803F00C03082BF9D1C6E7FA
S31508000FF800ED00E000380240103000240070004080
S3150800100808544007003C0240684620F007018D4610
S3150800101800BFFDE7202000F0D1F8064B013B01D0C0
S3150800102800BFFBE7202000F0CFF8024B013BF1D0C8
S3150800103800BFFBE7819698000E4A0F48801A801071
S315080010480023834206D00D4951F8231042F823108D
S315080010580133F6E70A4BD3F8882042F47002C3F83E
S31508001068882003F50C735A6822F040425A60FFF745
S31508001078E1BA00BF0000002024000020D8140008A8
S3150800108800ED00E01D4B9A6802F00C02042A10B520
S3150800109803D0082A03D01A4B18E01A4B16E05968E9
S315080010A85A6811F4800F596814BF164B144B02F08E
S315080010B83F02B3FBF2F3114A5268C2F30142C1F385
S315080010C8881101324B435200B3FBF2F30B49036014
S315080010D88B680D4AC3F30313D45C0368E340436083
S315080010E88C68C4F38224145D23FA04F4846089683E
S315080010F8C1F34231525CD340C36010BD0038024088
S315080011080024F40000127A0011000020044B1A6B20
S3150800111809B1104301E022EA00001863704700BFCE
S3150800112800380240044B1A6C09B1104301E022EA60
S3150800113800001864704700BF00380240044B5A6C18
S3150800114809B1104301E022EA00005864704700BF5D
S315080011580038024008B5FFF7D1FE00F00BF8FFF794
S31508001168B5FD4FF41650FFF771FEBDE80840FFF7C6
S315080011780FBD000037B501200146FFF7C7FF02205B
S315080011880121FFF7C3FF0C4C04200121FFF7BEFF1E
S31508001198012320258DF804300322002320466946BA
S315080011A800958DF806308DF805208DF8073000F083
S315080011B811F8658303B030BD00000240014B80B2C8
S315080011C81883704700000240014B80B25883704765
S315080011D8000002402DE9F0410F68002301229A40D9
S315080011E802EA0705954231D15A0003240668944055
S315080011F8E443264006600E79D0F800C006FA02F8DD
S31508001208013EF6B248EA0C0C012EC0F800C014D804
S31508001218866891F805C02640866086680CFA02FC3E
S315080012284CEA06068660466826EA050545608D790D
S3150800123846689D40ADB235434560C5682C40C460D4
S31508001248CD79C46805FA02F22243C2600133102B2D
S31508001258C4D1BDE8F08101F00703C90800EB810095
S3150800126810B59B00046A0F21994024EA010101621E
S31508001278016A9A401143016210BD0000C2780378DA
S3150800128810B50AB3164A4478D268D243C2F3022282
S31508001298C2F10401C9B204FA01F10F2444FA02F2B0
S315080012A88478C9B222400A4303F1604303F56143CF
S315080012B81201D2B283F8002303780122590903F0F0
S315080012C81F0302FA03F306E05909012203F01F0374
S315080012D802FA03F32031034A42F8213010BD00BF51
S315080012E800ED00E000E100E00DC0A0E1F8DF2DE91F
S315080012F804B04CE228D04BE2F06F9DE81EFF2FE1C0
S315080013080DC0A0E1F8DF2DE904B04CE228D04BE285
S31508001318F06F9DE81EFF2FE1737464696F20696E8C
S31508001328697420646F6E650A00626F6F74696E6708
S315080013382066726F6D20307825780A0041542B4351
S31508001348495053544152543D22544350222C222585
S3150800135873222C25750A0D004F4B0041542B43491F
S3150800136850434C4F53450A0D0041542B434950539B
S31508001378454E443D25750A0D002B495044003A0050
S31508001388696E697469616C697A696E6720776966D6
S31508001398690A0041542B5253540A007265736574DE
S315080013A8696E672077696669206572726F720A00C6
S315080013B841542B43574D4F44453D310A0D0073653B
S315080013C87474696E672077696669206572726F72C8
S315080013D80A0041542B43574A41503D222573222C73
S315080013E8222573220A0D00646973636F6E6E65633E
S315080013F874656400766572796861726400636F6EF5
S315080014086E656374696E6720746F202225732220BF
S315080014186572726F720A0073756365737320636FFA
S315080014286E6E656374656420746F202225732220A6
S315080014380A00726571756573742073656E646564F0
S3150800144820776974682025750A0072656365697668
S3150800145865642064617461203A3E003C0A00736F33
S315080014686D65207465787420746F20736572766567
S31508001478720A000A77656C636F6D6520746F20536E
S31508001488757A7568614F53205E5F5E20322E302E5E
S31508001498380A4255494C44204D617920203120327A
S315080014A83031352032313A32363A30340A006D61F5
S315080014B8696E207468726561642069646C652C209D
S315080014C8757074696D652025750A000000000000AE
S315080014D8401F00003139322E3136382E322E36006A
S315080014E800000000000102030401020304060708BD
S309080014F809000000D9
S70508001041A1
